{
  "_format": "hh-sol-artifact-1",
  "contractName": "WholesaleCBDC",
  "sourceName": "contracts/wcbdc.sol",
  "abi": [
    {
      "inputs": [],
      "stateMutability": "nonpayable",
      "type": "constructor"
    },
    {
      "anonymous": false,
      "inputs": [
        {
          "indexed": true,
          "internalType": "address",
          "name": "to",
          "type": "address"
        },
        {
          "indexed": false,
          "internalType": "uint256",
          "name": "amount",
          "type": "uint256"
        }
      ],
      "name": "CBDCIssued",
      "type": "event"
    },
    {
      "anonymous": false,
      "inputs": [
        {
          "indexed": true,
          "internalType": "address",
          "name": "from",
          "type": "address"
        },
        {
          "indexed": true,
          "internalType": "address",
          "name": "to",
          "type": "address"
        },
        {
          "indexed": false,
          "internalType": "uint256",
          "name": "amount",
          "type": "uint256"
        }
      ],
      "name": "CBDCTransferred",
      "type": "event"
    },
    {
      "anonymous": false,
      "inputs": [
        {
          "indexed": false,
          "internalType": "uint256",
          "name": "amount",
          "type": "uint256"
        }
      ],
      "name": "CheckBalance",
      "type": "event"
    },
    {
      "inputs": [
        {
          "internalType": "address",
          "name": "",
          "type": "address"
        }
      ],
      "name": "balances",
      "outputs": [
        {
          "internalType": "uint256",
          "name": "",
          "type": "uint256"
        }
      ],
      "stateMutability": "view",
      "type": "function"
    },
    {
      "inputs": [],
      "name": "centralBank",
      "outputs": [
        {
          "internalType": "address",
          "name": "",
          "type": "address"
        }
      ],
      "stateMutability": "view",
      "type": "function"
    },
    {
      "inputs": [
        {
          "internalType": "uint256",
          "name": "usdAmount",
          "type": "uint256"
        }
      ],
      "name": "convertToCBDC",
      "outputs": [],
      "stateMutability": "nonpayable",
      "type": "function"
    },
    {
      "inputs": [
        {
          "internalType": "uint256",
          "name": "cbdcAmount",
          "type": "uint256"
        }
      ],
      "name": "convertToUSD",
      "outputs": [],
      "stateMutability": "nonpayable",
      "type": "function"
    },
    {
      "inputs": [
        {
          "internalType": "address",
          "name": "user_account",
          "type": "address"
        }
      ],
      "name": "getBalance",
      "outputs": [
        {
          "internalType": "uint256",
          "name": "",
          "type": "uint256"
        }
      ],
      "stateMutability": "nonpayable",
      "type": "function"
    },
    {
      "inputs": [
        {
          "internalType": "address",
          "name": "participant",
          "type": "address"
        }
      ],
      "name": "getCBDCBalance",
      "outputs": [
        {
          "internalType": "uint256",
          "name": "",
          "type": "uint256"
        }
      ],
      "stateMutability": "view",
      "type": "function"
    },
    {
      "inputs": [
        {
          "internalType": "address",
          "name": "to",
          "type": "address"
        },
        {
          "internalType": "uint256",
          "name": "amount",
          "type": "uint256"
        }
      ],
      "name": "issueCBDC",
      "outputs": [],
      "stateMutability": "nonpayable",
      "type": "function"
    },
    {
      "inputs": [
        {
          "internalType": "address",
          "name": "from",
          "type": "address"
        },
        {
          "internalType": "uint256",
          "name": "amount",
          "type": "uint256"
        }
      ],
      "name": "reclaimCBDC",
      "outputs": [],
      "stateMutability": "nonpayable",
      "type": "function"
    },
    {
      "inputs": [
        {
          "internalType": "address",
          "name": "to",
          "type": "address"
        },
        {
          "internalType": "uint256",
          "name": "amount",
          "type": "uint256"
        }
      ],
      "name": "transferCBDC",
      "outputs": [],
      "stateMutability": "nonpayable",
      "type": "function"
    }
  ],
  "bytecode": "0x608060405234801561001057600080fd5b50336000806101000a81548173ffffffffffffffffffffffffffffffffffffffff021916908373ffffffffffffffffffffffffffffffffffffffff160217905550610e10806100606000396000f3fe608060405234801561001057600080fd5b50600436106100935760003560e01c80639a4a0fb2116100665780639a4a0fb21461011c578063abf196911461013a578063dccc14e214610156578063dcdb0a5614610172578063f8b2cb4f146101a257610093565b806327e235e3146100985780634b6ffd04146100c85780635de966bb146100e457806389da7df814610100575b600080fd5b6100b260048036038101906100ad91906109cc565b6101d2565b6040516100bf9190610a12565b60405180910390f35b6100e260048036038101906100dd9190610a59565b6101ea565b005b6100fe60048036038101906100f99190610a59565b610433565b005b61011a60048036038101906101159190610a99565b61064f565b005b610124610652565b6040516101319190610ad5565b60405180910390f35b610154600480360381019061014f9190610a59565b610676565b005b610170600480360381019061016b9190610a99565b61085e565b005b61018c600480360381019061018791906109cc565b610861565b6040516101999190610a12565b60405180910390f35b6101bc60048036038101906101b791906109cc565b6108aa565b6040516101c99190610a12565b60405180910390f35b60016020528060005260406000206000915090505481565b600073ffffffffffffffffffffffffffffffffffffffff168273ffffffffffffffffffffffffffffffffffffffff1603610259576040517f08c379a000000000000000000000000000000000000000000000000000000000815260040161025090610b4d565b60405180910390fd5b6000811161029c576040517f08c379a000000000000000000000000000000000000000000000000000000000815260040161029390610bb9565b60405180910390fd5b80600160003373ffffffffffffffffffffffffffffffffffffffff1673ffffffffffffffffffffffffffffffffffffffff16815260200190815260200160002054101561031e576040517f08c379a000000000000000000000000000000000000000000000000000000000815260040161031590610c25565b60405180910390fd5b80600160003373ffffffffffffffffffffffffffffffffffffffff1673ffffffffffffffffffffffffffffffffffffffff168152602001908152602001600020600082825461036d9190610c74565b9250508190555080600160008473ffffffffffffffffffffffffffffffffffffffff1673ffffffffffffffffffffffffffffffffffffffff16815260200190815260200160002060008282546103c39190610ca8565b925050819055508173ffffffffffffffffffffffffffffffffffffffff163373ffffffffffffffffffffffffffffffffffffffff167f925a323449c5f0324e7fddec59d0245cf97d260d444d35a70e9cbc6ec35aaa04836040516104279190610a12565b60405180910390a35050565b60008054906101000a900473ffffffffffffffffffffffffffffffffffffffff1673ffffffffffffffffffffffffffffffffffffffff163373ffffffffffffffffffffffffffffffffffffffff16146104c1576040517f08c379a00000000000000000000000000000000000000000000000000000000081526004016104b890610d4e565b60405180910390fd5b600073ffffffffffffffffffffffffffffffffffffffff168273ffffffffffffffffffffffffffffffffffffffff1603610530576040517f08c379a000000000000000000000000000000000000000000000000000000000815260040161052790610dba565b60405180910390fd5b60008111610573576040517f08c379a000000000000000000000000000000000000000000000000000000000815260040161056a90610bb9565b60405180910390fd5b80600160008473ffffffffffffffffffffffffffffffffffffffff1673ffffffffffffffffffffffffffffffffffffffff1681526020019081526020016000205410156105f5576040517f08c379a00000000000000000000000000000000000000000000000000000000081526004016105ec90610c25565b60405180910390fd5b80600160008473ffffffffffffffffffffffffffffffffffffffff1673ffffffffffffffffffffffffffffffffffffffff16815260200190815260200160002060008282546106449190610c74565b925050819055505050565b50565b60008054906101000a900473ffffffffffffffffffffffffffffffffffffffff1681565b60008054906101000a900473ffffffffffffffffffffffffffffffffffffffff1673ffffffffffffffffffffffffffffffffffffffff163373ffffffffffffffffffffffffffffffffffffffff1614610704576040517f08c379a00000000000000000000000000000000000000000000000000000000081526004016106fb90610d4e565b60405180910390fd5b600073ffffffffffffffffffffffffffffffffffffffff168273ffffffffffffffffffffffffffffffffffffffff1603610773576040517f08c379a000000000000000000000000000000000000000000000000000000000815260040161076a90610b4d565b60405180910390fd5b600081116107b6576040517f08c379a00000000000000000000000000000000000000000000000000000000081526004016107ad90610bb9565b60405180910390fd5b80600160008473ffffffffffffffffffffffffffffffffffffffff1673ffffffffffffffffffffffffffffffffffffffff16815260200190815260200160002060008282546108059190610ca8565b925050819055508173ffffffffffffffffffffffffffffffffffffffff167f6b573e58388d5f0a8c519c0b25a23d7bc6012ac7b37e9c1266a52c9375ecbd0f826040516108529190610a12565b60405180910390a25050565b50565b6000600160008373ffffffffffffffffffffffffffffffffffffffff1673ffffffffffffffffffffffffffffffffffffffff168152602001908152602001600020549050919050565b60007f7c4b3ebe24b67f845d481885128ad41f55e5d927e00e2573453e1a8cf437b75c600160008473ffffffffffffffffffffffffffffffffffffffff1673ffffffffffffffffffffffffffffffffffffffff1681526020019081526020016000205460405161091a9190610a12565b60405180910390a1600160008373ffffffffffffffffffffffffffffffffffffffff1673ffffffffffffffffffffffffffffffffffffffff168152602001908152602001600020549050919050565b600080fd5b600073ffffffffffffffffffffffffffffffffffffffff82169050919050565b60006109998261096e565b9050919050565b6109a98161098e565b81146109b457600080fd5b50565b6000813590506109c6816109a0565b92915050565b6000602082840312156109e2576109e1610969565b5b60006109f0848285016109b7565b91505092915050565b6000819050919050565b610a0c816109f9565b82525050565b6000602082019050610a276000830184610a03565b92915050565b610a36816109f9565b8114610a4157600080fd5b50565b600081359050610a5381610a2d565b92915050565b60008060408385031215610a7057610a6f610969565b5b6000610a7e858286016109b7565b9250506020610a8f85828601610a44565b9150509250929050565b600060208284031215610aaf57610aae610969565b5b6000610abd84828501610a44565b91505092915050565b610acf8161098e565b82525050565b6000602082019050610aea6000830184610ac6565b92915050565b600082825260208201905092915050565b7f496e76616c696420726563697069656e74206164647265737300000000000000600082015250565b6000610b37601983610af0565b9150610b4282610b01565b602082019050919050565b60006020820190508181036000830152610b6681610b2a565b9050919050565b7f416d6f756e74206d7573742062652067726561746572207468616e207a65726f600082015250565b6000610ba3602083610af0565b9150610bae82610b6d565b602082019050919050565b60006020820190508181036000830152610bd281610b96565b9050919050565b7f496e73756666696369656e7420434244432062616c616e636500000000000000600082015250565b6000610c0f601983610af0565b9150610c1a82610bd9565b602082019050919050565b60006020820190508181036000830152610c3e81610c02565b9050919050565b7f4e487b7100000000000000000000000000000000000000000000000000000000600052601160045260246000fd5b6000610c7f826109f9565b9150610c8a836109f9565b9250828203905081811115610ca257610ca1610c45565b5b92915050565b6000610cb3826109f9565b9150610cbe836109f9565b9250828201905080821115610cd657610cd5610c45565b5b92915050565b7f4f6e6c79207468652063656e7472616c2062616e6b2063616e2063616c6c207460008201527f6869732066756e6374696f6e0000000000000000000000000000000000000000602082015250565b6000610d38602c83610af0565b9150610d4382610cdc565b604082019050919050565b60006020820190508181036000830152610d6781610d2b565b9050919050565b7f496e76616c69642073656e646572206164647265737300000000000000000000600082015250565b6000610da4601683610af0565b9150610daf82610d6e565b602082019050919050565b60006020820190508181036000830152610dd381610d97565b905091905056fea26469706673582212202e31c1265a7943aac75edcc18050d88d5038bad2b596b0039e9d8ffc03bb88bb64736f6c63430008130033",
  "linkReferences": {},
  "deployedLinkReferences": {}
}